:100000000C94631C0C94941C0C94941C0C94941CE1
:100010000C94941C0C94941C0C94941C0C94941CA0
:100020000C94941C0C94941C0C94941C0C94941C90
:100030000C94941C0C94889D0C94941C0C94941C0B
:100040000C94941C0C9480DC0C94941C0C94941CC4
:100050000C94941C0C94941C0C94CB790C943E9DA1
:100060000C94941C0C94C64C0C94BC4C0C94941C96
:100070000C94941C0C94941C0C94941C0C94941C40
:100080000C94941C0C94941C0C94941C0C94941C30
:100090000C94941C0C94941C0C94941C0C94941C20
:1000A0000C94941C0C94941C0C94941C0C94941C10
:1000B0000C94941C0C94941C0C94941C0C94941C00
:1000C0000C94941C0C94941C0C94941C0C94941CF0
:1000D0000C94941C0C94941C0C94941C0C94941CE0
:1000E0000C94941C21416C3FA53F5D41A53FA53F69
:1000F000A53FA53FA53FA53FA53FA53FA53FA53FE0
:10010000A53FA53FA53FA53FA53FA53FA53FA53FCF
:10011000A53FA53FA53FA53FA53FA53FA53FA53FBF
:100120005741A53FA53FA53FA53FA53FA53FA53FFB
:10013000A53F3041A53FA53FA53FA53FA53FA53F12
:10014000A53FA53FA53FA53F7441A23F030155022E
:10015000430259019701B1017B026501B7017501A5
:10016000E900A90145019D017901750211011B01F9
:10017000030239025D016D011902270221015B01B1
:10018000F7014D026F015D0109023301F900D5014C
:100190005D021701F9016F02CF01390115028B01D0
:1001A00083014B020B010C940B9D0C94175D0C9476
:1001B000A0E90C9487F40C9413EB0C9471590C94F3
:1001C00026590D9455180D94E2480C94A2B50C9440
:1001D000DCF90D9410170C94835B0C94EB410C9498
:1001E000D7590C94E9CD0C94295A0C947ACF0C94DD
:1001F0000FCD0D94B3230C9462C40C94CC6B0C946F
:10020000BCF40D94B40B0D944E160C940FEB0C949F
:10021000165A0C94F83E0D94A7270D946B050C9478
:10022000D06B0D9481230C9457410C9470AF0D94B6
:1002300095270C943F590D9470230C9464C40C942E
:1002400001B60D9493230C946ACF0C946C3F0C94DC
:1002500037BB0C944D420C9466C40C94C4410C946E
:100260007FB50C948E5A0D94AF230C94F6610C94C8
:10027000C1B90D949E270C94715B0C9424AA0C9424
:100280003BAA0C9421410C94935F0D9442170C945B
:10029000DCF40D947E070C94A3590C94135B0C941E
:1002A000A53F0C940DAA0C948F5B0C9442B80C944F
:1002B000E15D0D947D160D9497230D94B8230C9455
:1002C00040BF0C9460EC0C94CDF40D94CD160C94BE
:1002D00008B60C94AAF40C94A4F40D9485230D9400
:1002E000A5230C94C2F40C945CE80D94F7160C94BE
:1002F00022C80D947C170C944DF70C949E5B0C94C3
:10030000D9BC0C946FF40D94BC270C9481F40C941C
:10031000DE5C0C947B5A0D94A1270C945DF40C9434
:1003200068C40C942BCC0C9473770C946CF70D94DC
:100330009A160C942D770C94E19C0D945F170C94F5
:10034000F6A90C94475B0C946AC40C94835A0C94E1
:100350003CF70D9429170C94B69E0C944B5A0C94B0
:100360000BC10D94AF160D9416080D94C4480D944E
:10037000DE160C94C8F40C94345B0C94AFB50C945A
:1003800037F70C9446BF0C9411EB0C94D7F40C94F3
:10039000895B0C94ED5C0C9474410C947D5B0D9422
:1003A0009B270C94B8BC0D941E080D94AF270C9499
:1003B000655B0C9429CC0C945F5B0C94CBBC0C94C7
:1003C0006B5B0C945A5A0C94A23F0C9432F70C9429
:1003D0004D5B0C94ABB50C94D46B0C9458590D94A4
:1003E0007B070C9430410D94E7090C94FC3E0D946E
:1003F0009D230D9492270C945FC80C94425A0D943F
:1004000081070C948ACF0D9474230C944BF40C94B4
:10041000BC590D94AB230C9475F70C940BEB0C9416
:100420007FF70C94356E0C945D410D94AA270C94C3
:1004300090F80D9489230C942B3E0C9436C60C94A2
:100440008DCE0C9466CF0C9434BF0C948ECF0D944B
:100450008F230C947BF40C940B5D0C944ACC0C947D
:10046000C1770C942E3E0C9441F70C9453CC0C9411
:10047000E7610D9478230C947ECF0C94D2F40C9405
:10048000AD5A0C94775B0D9470160C9472CF0C944B
:1004900076CF0C94B6F40D94A4270D94A1230C945C
:1004A00082CF0D94C2070C94A6F80D945B160C94A1
:1004B000F93E0C94ADB50C94535B0D948F270C94BE
:1004C00089EC0C94B0F40C940FE60C94595B0C94EA
:1004D000FD590C9498F70C948A590D9476060D9456
:1004E00098270C940DEB0C940AB10D947E230C9478
:1004F000E56B0C945BCC0D94BC160D9479060C94B2
:10050000BCBD0C94CF5C0C94EA590C94ECEA0C94AE
:1005100086CF0C94FC5C0C946ECF0C94FF610C9411
:100520004BD24E414E494E495459494E46CDCCCC02
:100530003D0AD7233C17B7D13877CC2B329595E6B7
:10054000241FB14F0A000020410000C84200401C97
:100550004620BCBE4CCA1B0E5AAEC59D7400407AE4
:1005600010F35A00A0724E18090010A5D4E800003C
:10057000E87648170000E40B54020000CA9A3B00DA
:100580000000E1F505000080969800000040420F51
:10059000000000A08601000000102700000000E815
:1005A00003000000006400000000000A00000000DA
:1005B000000100000000002C76D888DC674F08237B
:1005C000DFC1DFAE59E1B1B796E5E3E453C63AE6E1
:1005D00051997696E8E6C28426EB898C9B62ED40C1
:1005E0007C6FFCEFBC9C9F40F2BAA56FA5F4900510
:1005F0005A2AF75C936B6CF9676DC11BFCE0E40D44
:1006000047FEF520E6B500D0ED902E030094357737
:10061000050080841E080000204E0A000000C80C5F
:10062000333333330F986E12831141EF8D211489C8
:100630003BE65516CFFEE6DB18D1844B381BF77C22
:100640001D901DA4BBE424203284725E228100C967
:10065000F124ECA1E53D27434F4D4D554E49434113
:1006600054494F4E0044525952554E004552524F34
:10067000525300494E464F004543484F00536C6566
:1006800065702E2E2E004D65736820706F696E7434
:10069000206F7574206F662072616E67650A004373
:1006A0006C69636B20746F20526573756D652E2EB7
:1006B0002E004E6F204D6F76652E00456E642066CD
:1006C000696C65206C6973740A00426567696E2005
:1006D00066696C65206C6973740A004E6F206D65E5
:1006E0006469610A00286E6F2066696C65290043A1
:1006F000757272656E742066696C653A20005344A9
:10070000207072696E74696E67206279746520006A
:100710004E6F74205344207072696E74696E670A5C
:100720000025697920256964202569682025696D7F
:1007300020256973005072696E742074696D653A82
:10074000200045202553006F66660044454255470A
:100750003A004D3131322053687574646F776E0002
:100760005A38545F4D33204F46462E004348414D82
:100770004245525F54454D504552415455524500F3
:10078000424142595354455050494E47004152430B
:1007900053004D4F54494F4E5F4D4F444553005405
:1007A0004845524D414C5F50524F54454354494F78
:1007B0004E004C4F4E475F46494C454E414D45001B
:1007C0004155544F5245504F52545F53445F535418
:1007D00041545553005344434152440050524F4DED
:1007E00050545F535550504F525400454D45524759
:1007F000454E43595F504152534552004341534582
:100800005F4C494748545F4252494748544E45530C
:100810005300544F47474C455F4C49474854530099
:10082000534F4654574152455F504F57455200422F
:1008300055494C445F50455243454E54004C455633
:10084000454C494E475F44415441005A5F50524F16
:1008500042450052554E4F5554004155544F4C455A
:1008600056454C005052494E545F4A4F4200505238
:100870004F4752455353004155544F5245504F52E4
:10088000545F54454D5000564F4C554D45545249B8
:10089000430042494E4152595F46494C455F5452CC
:1008A000414E534645520053455249414C5F584FC3
:1008B0004E5F584F4646004649524D574152455F9C
:1008C0004E414D453A4D61726C696E204D61726CBE
:1008D000696E2D322E302E3820284A756C20203833
:1008E00020323032312031353A35343A323829200D
:1008F000534F555243455F434F44455F55524C3A21
:1009000068747470733A2F2F6769746875622E6308
:100910006F6D2F4D61726C696E4669726D77617291
:10092000652F4D61726C696E2050524F544F434F8A
:100930004C5F56455253494F4E3A312E30204D416F
:100940004348494E455F545950453A5A38545F4DD3
:10095000332045585452554445525F434F554E54E9
:100960003A3120555549443A6365646532613266CF
:100970002D343161322D343734382D396231322DF6
:100980006335356336326633363766660A002F2F95
:1009900020004D31343520533C696E6465783E202B
:1009A0006F7574206F662072616E67652028302D28
:1009B00031290A00416363656C65726174696F6E09
:1009C0003A20500046523A0020466C6F773A200099
:1009D00020643A0020693A0020703A00496E76613E
:1009E0006C69642065787472756465720A00466982
:1009F0006C616D656E742072756E6F7574206469BC
:100A00007374616E636520286D6D293A2000466914
:100A10006C616D656E742072756E6F757420004D1B
:100A200034323120696E636F727265637420706155
:100A300072616D657465722075736167650A002067
:100A4000204261636B6C6173682044697374616EEA
:100A5000636520286D6D293A202020202020202049
:100A600000202846312E30203D2066756C6C2C20ED
:100A700046302E30203D206E6F6E65290A00202002
:100A8000436F7272656374696F6E20416D6F756E2E
:100A9000742F466164652D6F75743A2020202020E4
:100AA00046006163746976653A0A004261636B6C63
:100AB00061736820436F7272656374696F6E2000A2
:100AC0004F666673657473204170706C696564006D
:100AD0004572723A20546F6F206661722100546F24
:100AE0006F206661722066726F6D20726566657236
:100AF000656E636520706F696E740A0045455052DB
:100B00004F4D204F4B0A00205A323A004475616C19
:100B100020456E6473746F702041646A7573746DE0
:100B2000656E7420286D6D293A2000506F776572CC
:100B30002D6C6F7373207265636F76657279200018
:100B4000446F6E65207072696E74696E67206669A5
:100B50006C650A004D3737004D3331007806730657
:100B60006C06650657064361703A0042616279730C
:100B7000746570205A0050726F6265204F6666730C
:100B80006574205A003F5A206F7574206F6620727A
:100B9000616E67652028003F59206F7574206F666D
:100BA0002072616E676520282D003F58206F757494
:100BB000206F662072616E676520282D0050726F6D
:100BC0006265204F6666736574205800656E7175A6
:100BD000657565696E672022006F6B0052657365ED
:100BE0006E643A200042656420436F6F6C696E67E3
:100BF0002E2E2E004265642048656174696E672E52
:100C00002E2E0023646566696E6520444546415575
:100C10004C545F004B6420004B6920004B70200057
:100C2000504944204175746F74756E652066696E15
:100C30006973686564212050757420746865206C40
:100C4000617374204B702C204B6920616E64204BC3
:100C50006420636F6E7374616E74732066726F6D5F
:100C60002062656C6F7720696E746F20436F6E66CB
:100C7000696775726174696F6E2E680A0050494425
:100C8000204175746F74756E65206661696C65646A
:100C9000212074696D656F75740A000A20436C61C8
:100CA0007373696320504944200A00204B643A2042
:100CB00000204B693A2000204B703A2000205475E8
:100CC0003A2000204B753A2000206D61783A2000D0
:100CD000206D696E3A200020643A2000206269612C
:100CE000733A2000504944204175746F74756E65E5
:100CF0002073746172740A00504944204175746F06
:100D000074756E65206661696C6564212054656D3B
:100D1000706572617475726520746F6F20686967A1
:100D2000680A00504944204175746F74756E6500FF
:100D3000504944204175746F74756E652066616911
:100D40006C65642120426164206578747275646505
:100D500072206E756D6265720A004572723A207576
:100D600074663820666F6E74206E6F7420696E69C9
:100D70007469616C697A65642E002568753A25305E
:100D800032687500256875642025303268753A250B
:100D90003032687500000C0F00FE07022503BB010E
:100DA0007FFE08FE08FE05080806000040F0C8881F
:100DB00088987810050808060000C0F88888888898
:100DC00088F80505050600012030F83020050808E0
:100DD0000600002070F820202020E0050909060008
:100DE000FF2070A8A8B888887020070505070001B3
:100DF000D86C366CD80509090600FFF8A8888888E1
:100E00008888A8F8050A0A0600FE2050505050882D
:100E1000A8A8887003030306000340A040FFFFFF5B
:100E2000FFFFFFFFFFFFFFFFFFFFFFFFFFFFFFFFD2
:100E3000FFFFFF0000000605FF0107070602008014
:100E4000808080800080030303060105A0A0A00528
:100E5000060606000050F85050F850050909060033
:100E6000FF2070A8A07028A87020050707060000C2
:100E7000C8C8102040989805070706000040A0A0A9
:100E800040A89068010303060205808080030909D9
:100E90000601FF2040408080804040200309090671
:100EA00001FF8040402020204040800507070600C9
:100EB0000020A8702070A82005050506000120204C
:100EC000F820200203030601FFC04080050101064F
:100ED0000003F8020202060100C0C0050707060071
:100EE00000081010204040800507070600007088A9
:100EF00098A8C8887003070706010040C04040401A
:100F000040E0050707060000708808102040F8053B
:100F10000707060000F80810300888700507070664
:100F2000000010305090F81010050707060000F878
:100F300080F008088870050707060000304080F040
:100F4000888870050707060000F808101020202088
:100F500005070706000070888870888870050707F5
:100F600006000070888878081060020505060100F8
:100F7000C0C000C0C00206060601FFC0C000C040DD
:100F8000800305050601012040804020050303067B
:100F90000002F800F80305050601018040204080AA
:100FA00005070706000070881020200020050707AD
:100FB0000600007088B8A8B8807005070706000012
:100FC000708888F8888888050707060000F0484878
:100FD000704848F005070706000070888080808808
:100FE00070050707060000F04848484848F0050724
:100FF00007060000F88080F08080F80507070600EB
:1010000000F88080F0808080050707060000708867
:101010008080988870050707060000888888F8880F
:101020008888030707060100E04040404040E00593
:10103000070706000038101010109060050707061B
:1010400000008890A0C0A0908805070706000080D7
:101050008080808080F805070706000088D8A8886F
:101060008888880507070600008888C8A8988888A7
:1010700005070706000070888888888870050707BC
:10108000060000F08888F0808080050707060000D1
:1010900070888888A89068050707060000F088888F
:1010A000F0A0908805070706000070888070088807
:1010B00070050707060000F82020202020200507E3
:1010C000070600008888888888887005070706005A
:1010D0000088888888505020050707060000888807
:1010E0008888A8A850050707060000888850205067
:1010F00088880507070600008888502020202005E2
:101100000707060000F80810204080F803090906C8
:1011100001FFE080808080808080E0050707060076
:1011200000804040201010080309090601FFE0205C
:10113000202020202020E005030306000520508801
:101140000501010600FEF8030303060105804020A7
:101150000505050600007008788878050707060071
:10116000008080F0888888F0050505060000708002
:101170008088700507070600000808788888887846
:101180000505050600007088F08070050707060059
:1011900000304840E04040400507070600FE7088E8
:1011A00088887808700507070600008080F0888826
:1011B00088880307070601004000C0404040E00463
:1011C00009090601FE10003010101010906005078C
:1011D0000706000080808890E090880307070601DA
:1011E00000C04040404040E0050505060000D0A892
:1011F000A8A8A8050505060000B0C88888880505C8
:101200000506000070888888700507070600FEF054
:10121000888888F080800507070600FE788888881F
:10122000780808050505060000B0C880808005051F
:101230000506000078807008F0050707060000200A
:1012400020F82020201805050506000088888898C9
:1012500068050505060000888888502005050506F4
:1012600000008888A8A850050505060000885020C1
:1012700050880507070600FE8888885020408005B2
:101280000505060000F8102040F80309090601FFD3
:101290002040404080404040200109090602FF8074
:1012A00080808080808080800309090601FF804063
:1012B0004040204040408005030306000248A890BB
:1012C000FF4572726F722077726974696E6720745D
:1012D0006F20454550524F4D210A004D32393000A4
:1012E0004D343130004D313132004D313038005302
:1012F000544F505045442E20005072696E746572F0
:101300002073746F707065642064756520746F203D
:101310006572726F72732E2046697820746865203A
:101320006572726F7220616E6420757365204D392D
:10133000393920746F20726573746172742E20289D
:1013400054656D7065726174757265206973207281
:10135000657365742E20536574206974206166740A
:1013600065722072657374617274696E67290A0010
:101370004E6F20436865636B73756D207769746881
:10138000206C696E65206E756D6265722C204C61F3
:101390007374204C696E653A2000636865636B73F3
:1013A000756D206D69736D617463682C204C617379
:1013B00074204C696E653A20004C696E65204E754C
:1013C0006D626572206973206E6F74204C61737456
:1013D000204C696E65204E756D6265722B312C2034
:1013E0004C617374204C696E653A20004D31313088
:1013F0000053442072656164206572726F720A0046
:101400002121204B494C4C20636175736564206237
:1014100079204B494C4C20627574746F6E2F706943
:101420006E0A002121204B494C4C20636175736585
:101430006420627920746F6F206D75636820696E17
:101440006163746976652074696D65202D2063750C
:101450007272656E7420636F6D6D616E643A200008
:101460004D656469612052656D6F766564004D65F8
:1014700064696120496E736572746564004D313032
:10148000303053004D36303020543137000000707A
:10149000C10000A0C00000000000009B4300009BB2
:1014A000430000C84353657474696E6773205374B6
:1014B0006F726564002062797465733B20637263A8
:1014C000200053657474696E67732053746F72657E
:1014D00064202800454550524F4D2064617461736B
:1014E000697A65206572726F722E0A002073746FBC
:1014F0007265642073657474696E677320726574B5
:10150000726965766564202800202863616C6375C4
:101510006C6174656429210A0020213D2000454545
:1015200050524F4D20435243206D69736D61746377
:1015300068202D202873746F726564292000496E1D
:101540006465783A200044494749504F5453204C31
:101550006F616465640A0044494749504F54532001
:101560004C6F6164696E670A00204D61726C696E30
:101570003D563833290A00454550524F4D20766577
:101580007273696F6E206D69736D61746368202872
:10159000454550524F4D3D00436F7272656374690B
:1015A0006F6E004E65787420436F726E65720044F2
:1015B0006F6E65004E65787400486F6D696E6720C8
:1015C00058595A0046616465204865696768740027
:1015D0004C6576656C20426564004732380A4732B4
:1015E00039004361746368205A204F6666736574DE
:1015F000004732380A473239204E004C6576656C18
:1016000020436F726E65727300556E7265747261FD
:101610006374205600556E726574722E206D6D00D5
:10162000486F70206D6D005265747261637420564E
:101630000052657472616374206D6D004175746F42
:101640002D52657472616374001FE0201020102019
:10165000101020102020102010303008400480038B
:10166000001FE03FF03FF03FF01FE01FE03FF03F82
:10167000F03FF00FC0078003003FFFF038007030EC
:10168000FC3020FC102078102030102C00D02E319F
:10169000D02F7BD02F7BD02E31D02C00D0203010FB
:1016A00020781020FC1030FC303800703FFFF03FF5
:1016B000FFF03800703186302387102787902F87FE
:1016C000D02F03D020301020781020781020301038
:1016D0002F03D02F87D0278790238710318630386B
:1016E00000703FFFF01FFFF81FFFF80410400208D2
:1016F0002002082004104008208010410010410002
:101700000820800410400000001FFFF81FFFF8337E
:1017100000CC00CC120048004812004800481200DB
:1017200048004813FFCFFFC810000000081FFF83C8
:10173000FFF8000FC7E000000FEFE0000003EF80AC
:10174000000001EF000000006C000000000000003D
:101750005072696E742041626F72746564004D321C
:101760003520500A4D32340050617573696E672E12
:101770002E2E006F70656E00545249474745524502
:10178000440066696C616D656E74007A5F70726F9B
:101790006265007A325F6D696E007A5F6D696E0016
:1017A000795F6D696E00785F6D696E005265706F6C
:1017B0007274696E6720656E6473746F70207374E1
:1017C000617475730A0020436F756E7420583A0077
:1017D000453100626564002C2073797374656D2057
:1017E00073746F7070656421204865617465725F01
:1017F00049443A200048656174696E672046616912
:101800006C65640048656174696E67206661696C27
:10181000656400202D20496E76616C6964206578CE
:10182000747275646572206E756D62657220210A2E
:10183000004572723A204D415854454D50004D417B
:101840005854454D5020747269676765726564002D
:101850004572723A204D494E54454D50004D494E07
:1018600054454D5020747269676765726564002045
:101870002F002042403A0020403A00001000AA0306
:101880008000400100012C01B00122014002100142
:10189000F00202018003F8004004F500E004ED00CE
:1018A0009005E4003006DD00E006D7008007D10097
:1018B0003008CC00D008C7007009C300100ABE0071
:1018C000B00ABB00500BB700900CB300D00DAA00BB
:1018D000B00FA5005010A0001014960090169000B4
:1018E00010198C00501A8500301C8200702278007C
:1018F000B023750040256E0020276900A0296400F0
:10190000502A5F00902B5A00D02C5500702D4F00AC
:10191000E02E48005031450030334100D0353900C9
:101920006036370010373300F0382D00A03927001B
:10193000803C1C00103D1900903D1700103E140023
:10194000703E1200C03E0F00003F0C00403F0800F8
:10195000803F0500C03F0000F03FFBFF20746F6F29
:10196000206C6F6E6720657874727573696F6E2076
:1019700070726576656E7465640A007C3C3E5E2B11
:101980003D3F2F5B5D3B2C2A225C000200000000E3
:101990000000000000000000000000000000000047
:1019A0000000000000000000000000000000000037
:1019B00000000000000000000000000007FFC3FF5F
:1019C000870187FF0FFCFFFC1E01FF8007FFC3FF9D
:1019D00087018FFF1FFCFFFC1E03FFC00000C60035
:1019E000C7018C0018000300618300C00001C6001D
:1019F000C7C18C0018000300618300C0000386008B
:101A0000C6C18C0018000301806300C000070600F7
:101A1000C6618C0018000301806300C0000E060040
:101A2000C6618C0018000301806300C0001C060022
:101A3000C6318FFE1FF803018063FFC00038060027
:101A4000C6318FFE0FFC03018063FF80007006002B
:101A5000C6198C00000C0301FFE30C0000E0060037
:101A6000C6198C00000C0301FFE3070001C006004B
:101A7000C60D8C00000C030180630180038006000A
:101A8000C60D8C00000C0301806301800700060076
:101A9000C6078C00000C030180630180060006006D
:101AA000C6078C00000C03018063018007FFC3FFA1
:101AB00086038FFF1FFC03018063018007FFC3FFC4
:101AC000860387FF1FF80301806301800000000088
:101AD0000000000000000000000000000000000006
:101AE00000000000000000000000000000000000F6
:101AF00000000000000000000000000000000000E6
:101B0000000000000000000000000000F0004A019A
:101B100010013B0130012C0140012701500122013D
:101B200070011D0190011801B0011301C0010E01E7
:101B3000F0010901100204013002FF006002FA0006
:101B40009002F500C002F0000003EB004003E60045
:101B50008003E100D003DC002004D700E004D200C1
:101B6000C005CD004006C800D006C3008007BE00F7
:101B7000F008B9004009B400C009AF00B00AAA00DB
:101B8000B00BA500D00CA000000E9B00C01096006A
:101B90005012910000148C00C0158700B01782000D
:101BA000B0197D00D01B7800001E730040206E002D
:101BB00090226900F024640040275F0090295A00B9
:101BC000E02B5500102E500020304B001032460004
:101BD000E033410090353C00103737007038320058
:101BE000A0392D00B03A2800A03B2300603C1E0025
:101BF000103D1900903D1700103E1400703E120079
:101C0000C03E0F00003F0C00403F0800803F050031
:101C1000C03F0000F03FFBFF2020506C616E6E65FE
:101C20007242756666657242797465733A20002067
:101C300046726565204D656D6F72793A2000436F7D
:101C40006D70696C65643A204A756C2020382032CA
:101C50003032310A00204C61737420557064617415
:101C600065643A20323032312D30332D3232207CCF
:101C700020417574686F723A20285A4F4E4553546C
:101C800041522C2048616C6C79290A004D61726CBC
:101C9000696E2D322E302E380A004D61726C696EDD
:101CA0000020536F667477617265205265736574A6
:101CB0000A00205761746368646F6720526573651A
:101CC000740A002042726F776E206F75742052651F
:101CD0007365740A002045787465726E616C2052D9
:101CE000657365740A00506F77657255700A0061FC
:101CF00075746F25632E67004732385859004D318F
:101D0000303031006572726F722077726974696E5B
:101D10006720746F2066696C650A00446F6E6520E9
:101D2000736176696E672066696C652E0A004D32B4
:101D30003900456E6473746F7073002553202563FA
:101D40002025632025632025630020503A00656E1E
:101D50006473746F7073206869743A2000576172FD
:101D60006E696E673A20486F6D696E672042756DC7
:101D7000702044697669736F72203C20310A00201C
:101D80006C696D6974656420746F2000204D617802
:101D90002000020204000048420000484200008087
:101DA000400000804000008040000000400080A211
:101DB0004300809D430000C843FFFFFF456E636CF6
:101DC0006F737572650052756E6F75742044697318
:101DD00074206D6D004C6F6164206D6D00556E6CEC
:101DE0006F6164206D6D0046696C2E204469612E20
:101DF000004520696E206D6DC2B3004D383400413E
:101E000075746F20486F6D650054656D7065726103
:101E1000747572650041425300504C410050726F1E
:101E20006265205A204F66667365740046616E20B5
:101E30005370656564004E6F7A7A6C65004D616918
:101E40006E0044697361626C6520537465707065DF
:101E5000727300486F6D65205A004732385A004847
:101E60006F6D652059004732385900486F6D652005
:101E7000580047323858004732380050726568655C
:101E80006174202420456E64005072656865617439
:101E900020242042656400436F6F6C646F776E008E
:101EA00050726568656174202400466C6F77001974
:101EB0001E151E4C6F61642053657474696E6773E0
:101EC0000053746F72652053657474696E67730094
:101ED000416476616E6365642053657474696E67EE
:101EE00073004F6E00554E4C4F41442046494C41C3
:101EF0004D454E540046494C414D454E54204348B3
:101F0000414E474500526573746F726520446566A3
:101F100061756C747300507265686561742024206B
:101F2000436F6E660052756E6F75742053656E73E5
:101F30006F72004D36303020423020542569004DFC
:101F400037303120542569004D373032205425690F
:101F500000556E6C6F616420416C6C004D373032FF
:101F6000004C6F61642046696C616D656E74202A57
:101F7000004368616E67652046696C616D656E74CB
:101F8000202A00556E6C6F61642046696C616D6536
:101F90006E74202A00436F6E74696E75650050750B
:101FA000726765206D6F726500524553554D45202F
:101FB0004F5054494F4E533A005052494E542050BE
:101FC00041555345440020204E6F7A7A6C653A2083
:101FD000004D333033205531204525692053256984
:101FE00000504944204175746F74756E65202A0055
:101FF0005049442D44202A005049442D49202A00AC
:102000005049442D50202A005654726176204D6963
:102010006E00566D696E00566D6178204500566DF4
:102020006178205A00566D6178205900566D6178AC
:10203000205800416D6178204500416D6178205A3B
:1020400000416D6178205900416D61782058004150
:102050002D54726176656C00412D52657472616316
:102060007400416363656C00506F776572204F7533
:102070007461676500436F6E666967757261746944
:102080006F6E00313330004245443A203130306BBE
:10209000207769746820342E376B2070756C6C2D36
:1020A00075700052756E617761792057617463684D
:1020B0003A204F4E004D61782054656D70003237E4
:1020C00035004D696E2054656D700045313A203100
:1020D00030306B207769746820342E376B20707530
:1020E0006C6C2D7570005053550047656E657269B4
:1020F000630050726F746F636F6C00312E3000425A
:102100006175640031313532303000687474707339
:102110003A2F2F7777772E616C69657870726573C7
:10212000732E636F6D2F6974656D2F3332393635B9
:102130003430363339362E68746D6C005A4F4E4544
:1021400053544152205A5249425F563600777777AE
:102150002E7A6F6E657374617233642E636F6D00D7
:10216000323032312D30332D3232004D61726C6994
:102170006E2D322E302E38004455414C205A2045C9
:102180004E4453544F50004455414C205A20445221
:102190004956455200544954414E20457874727551
:1021A00064657200504C2D30384E2053454E534FCD
:1021B000520042696C696E656172204C6576656C8F
:1021C000696E670056322E302E30005A38545F4DFB
:1021D0003300546865726D6973746F727300426F77
:1021E00061726420496E666F005072696E74657228
:1021F00020496E666F004D313030300053746F707F
:10220000205072696E743F00526573756D65205081
:1022100072696E743F004261636B0053746F7000AB
:102220004E6F204D65646961004368616E6765208B
:102230004D65646961004D3231005377697463689C
:1022400020506F776572204F6666004D383100432D
:1022500068616E67652046696C616D656E740041EA
:10226000626F7574205072696E7465720054756E79
:1022700065005061757365205072696E743F004946
:102280006E666F2053637265656E005061726B6994
:102290006E672E2E2E0000005761697420666F72E3
:1022A0000066696C616D656E74206368616E676558
:1022B00000746F20737461727400576169742066D2
:1022C0006F720066696C616D656E7420756E6C6FFF
:1022D000616400004E6F7A7A6C652068656174698C
:1022E0006E6700506C6561736520776169742E2E8E
:1022F0002E0000507265737320627574746F6E00E7
:10230000746F2068656174206E6F7A7A6C65000066
:10231000496E736572742066696C616D656E7400D8
:10232000616E6420707265737320627574746F6E71
:1023300000746F20636F6E74696E75650057616914
:102340007420666F720066696C616D656E74206CD6
:102350006F61640000507265737320427574746F0E
:102360006E00746F20726573756D65207072696E92
:102370007400005761697420666F72207072696E14
:102380007400746F20726573756D652E2E2E0000BB
:102390005761697420666F720066696C616D656E65
:1023A000742070757267650000252900257C002067
:1023B0003B2043757272656E74205A00203B2045A5
:1023C0006E6400203B205374617274004772616434
:1023D00069656E74204D69782000203B2065787413
:1023E00072756465727300203B2048656967687484
:1023F0000052616E646F6D204D697820004D32345B
:102400002053256C642054256C64004739322E39E2
:102410002045257300473120462564004731205868
:102420002573205925732046333030300047312042
:102430005A2573204633303000473238205A300056
:102440004731204525642046323030004D3432304B
:1024500020532569205A2573004D313036205025F0
:102460006920532569005425692053004D313039C6
:1024700020532569004D3230302044257300473207
:102480003852305859004739322E39204530205AB9
:10249000300A47315A2573004D31303920533138D5
:1024A00030004D31393020532569004D3432302011
:1024B0005330205A300020496E76616C6964206583
:1024C00078747275646572200020496E76616C695B
:1024D000642045207374657070657220002045206B
:1024E00073746570706572206E6F742073706563AD
:1024F00069666965640A0024F4D43050C38E20C232
:10250000A24017828B7011127A910D816CD90AA8A2
:1025100061E108C7586607615143061E4B5D05C15E
:1025200045A7041A411104093D980371393103404C
:1025300036DB0265339102D4305402802E1D0263D3
:102540002CEE01752AC501B028A001102781018F4A
:102550002564012B244B01E0223401AC211F018DA5
:10256000200D01801FFC00841EED00971DDF00B8C8
:102570001CD200E61BC600201BBC00641AB200B2CD
:1025800019A8000A19A0006A189900D117910040F3
:10259000178B00B516840031167E00B31579003A0A
:1025A000157300C7146F0058146A00EE1366008894
:1025B00013630025135E00C7125B006C12570015F1
:1025C000125400C111510070114F0021114B00D65F
:1025D0001049008D1047004610440002104200C010
:1025E0000F4000800F3E00420F3C00060F3B00CB27
:1025F0000E3800930E37005C0E3500270E3400F3C2
:102600000D3200C10D3100900D3000600D2E0032F2
:102610000D2D00050D2C00D90C2B00AE0C290085CA
:102620000C29005C0C2700350C27000E0C2600E856
:102630000B2400C40B2400A00B23007D0B23005AA5
:102640000B2100390B2100180B2000F80A1F00D9BC
:102650000A1E00BB0A1E009D0A1D00800A1D0063A1
:102660000A1C00470A1B002C0A1B00110A1A00F75B
:10267000091A00DD091900C4091900AB09190092F3
:102680000917007B091800630917004C091600366A
:10269000091600200916000A091500F5081500E0C2
:1026A000081400CC081400B8081400A40814009002
:1026B0000813007D0812006B08130058081200462A
:1026C000081200340811002308110012081100013B
:1026D000081100F0071000E0071000D0071000C03C
:1026E000071000B0070F00A107100091070E00832C
:1026F000070F0074070F0065070E0057070E00490B
:10270000070E003B070D002E070E0020070D0013DB
:10271000070D0006070D00F9060C00ED060D00E0A0
:10272000060C00D4060C00C8060C00BC060C00B059
:10273000060C00A4060B0099060C008D060B008207
:10274000060B0077060B006C060B0061060A0057AB
:10275000060B004C060A0042060A0038060A002E44
:10276000060A0024060A001A060A001006090007D5
:10277000060A00FD050900F4050900EB050900E261
:10278000050900D9050900D0050900C7050900BEE3
:10279000050900B5050800AD050800A50509009C60
:1027A000050800940508008C050800840508007CD5
:1027B000050800740508006C050700650508005D44
:1027C000050700560508004E0507004705070040AD
:1027D00005080038050700310507002A0507002312
:1027E0000507001C050600160507000F0507000871
:1027F00005060002050700FB040600F5040700EECD
:10280000040600E8040600E2040700DB040600D525
:10281000040600CF040600C9040600C3040600BD78
:10282000040600B7040600B1040500AC040600A6C7
:10283000040600A00405009B040600950405009012
:102840000406008A04050085040500800406007A59
:1028500004050075040500700405006B040500669E
:10286000040500610405005C0405005704050052DE
:102870000405004D04050048040500430405003E1E
:102880000404003A04050035040500300404002C5B
:1028900004050027040400230405001E0404001A94
:1028A00004040016040500110404000D04040009CA
:1028B0000405000404040000040400FC030400F800
:1028C000030400F4030400F0030400EC030400E834
:1028D000030400E4030400E0030400DC030400D864
:1028E000030400D4030400D0030400CC030400C894
:1028F000030300C503030024F404D9201BC40C5CAB
:102900000E9804C4095F0265077101F405F900FB24
:1029100004B30048048700C103690058035500034D
:10292000034500BE023A008402310053022A002906
:1029300002250004022000E4011C00C8011900AFB8
:102940000117009801140084011300710110006147
:1029500001100051010E0043010D0036010B002B48
:10296000010B0020010B00150109000C01090003F7
:10297000010800FB000800F3000800EB000700E47A
:10298000000600DE000600D8000600D2000600CCDB
:10299000000500C7000500C2000500BD000400B925
:1029A000000400B5000400B1000400AD000400A95B
:1029B000000400A5000300A20003009F0004009B88
:1029C00000030098000300950002009300030090AC
:1029D0000003008D0002008B0003008800020086C7
:1029E00000020084000300810002007F0002007DDD
:1029F0000002007B000200790002007700010076EF
:102A00000002007400020072000100710002006FF9
:102A10000002006D0001006C0002006A0001006904
:102A2000000200670001006600010065000100640B
:102A30000002006200010061000100600001005F0F
:102A40000002005D0001005C0001005B0001005A13
:102A50000001005900010058000100570001005614
:102A60000001005500010054000100530000005314
:102A70000001005200010051000100500001004F10
:102A80000001004E0000004E0001004D0001004C0E
:102A90000001004B0000004B0001004A000100490A
:102AA0000001004800000048000100470001004606
:102AB0000000004600010045000000450001004400
:102AC00000010043000000430001004200000042FA
:102AD0000001004100000041000100400001003FF2
:102AE0000000003F0001003E0000003E0001003DEC
:102AF0000000003D0001003C0000003C0000003CE4
:102B00000001003B0000003B0001003A0000003AD9
:102B100000010039000000390001003800000038D1
:102B200000000038000100370000003700010036C7
:102B300000000036000000360001003500000035BE
:102B400000000035000100340000003400000034B3
:102B500000010033000000330000003300010032A8
:102B6000000000320000003200010031000000319E
:102B70000000003100010030000000300000003093
:102B80000001002F0000002F0000002F0000002F88
:102B90000001002E0000002E0000002E0001002D7C
:102BA0000000002D0000002D0000002D0001002C71
:102BB0000000002C0000002C0000002C0001002B65
:102BC0000000002B0000002B0000002B0001002A59
:102BD0000000002A0000002A0000002A000100294D
:102BE0000000002900000029000000290000002941
:102BF0000001002800000028000000280000002834
:102C00000000002800010027000000270000002726
:102C10000000002700000027000100260000002619
:102C2000000000260000002600000026000100250C
:102C30000000002500000025000000250000002500
:102C400000000025000100240000002400000024F2
:102C500000000024000000240001002300000023E5
:102C600000000023000000230000002300000023D8
:102C700000000023000100220000002200000022CA
:102C800000000022000000220000002200010021BC
:102C900000000021000000210000002100000021B0
:102CA00000000021000000210001002000000020A1
:102CB0000000002000000020000000200000002094
:102CC00000000020000000200001001F0000001F85
:102CD0000000001F0000001F0000001F0000001F78
:102CE0000000001F0001001E0000001E0000001E6A
:102CF0000000001E000000A42C0000841E0000B094
:102D0000120000870A00009E050000E90200007B17
:102D1000010000BF00000056652D4A65726B005629
:102D20005A2D4A65726B0056592D4A65726B0056D2
:102D3000582D4A65726B0050726F62652059204FA2
:102D400066667365740050726F62652058204F6626
:102D50006673657400452073746570732F6D6D0024
:102D60005A2053746570732F6D6D0059205374652C
:102D700070732F6D6D00582053746570732F6D6DD7
:102D800000496E697400496E697469616C697A659D
:102D900020454550524F4D004261636B6C61736832
:102DA0000050726F6265204F6666736574730041F0
:102DB0006363656C65726174696F6E0056656C6FF4
:102DC00063697479005A20486F6D65204F66667399
:102DD000657473005920486F6D65204F6666736592
:102DE0007473005820486F6D65204F666673657474
:102DF000002053697A653A200043616E6E6F74203B
:102E00006F70656E20737562646972200053442090
:102E1000496E6974204661696C0053442063617295
:102E200064206F6B0A006F70656E526F6F7420665E
:102E300061696C65640A00766F6C756D652E696EEC
:102E40006974206661696C65640A004E6F205344A2
:102E500020636172640A004D323320257300466995
:102E60006C652073656C65637465640A0046696C03
:102E700065206F70656E65643A2000454E442053AE
:102E80005542524F5554494E450A002220706F73E7
:102E9000002220706172656E743A220053554252CE
:102EA0004F5554494E452043414C4C207461726744
:102EB00065743A220053756263616C6C204F7665CD
:102EC00072666C6F77004578636565646564206D34
:102ED000617820535542524F5554494E4520646500
:102EE0007074683A310A0044656C6574696F6E20CD
:102EF0006661696C65642C2046696C653A20004601
:102F0000696C652064656C657465643A006F706512
:102F10006E206661696C65642C2046696C653A2098
:102F20000057726974696E6720746F2066696C65FA
:102F30003A2000667265736800646F696E67004EC0
:102F40006F7720004D697865720043616E63656C30
:102F5000004D6F74696F6E004379636C65204D6935
:102F60007800436F6D6D697420562D746F6F6C20FF
:102F70004D697800436F6D706F6E656E74203D0013
:102F8000562D746F6F6C7320576572652052657390
:102F900065740052616E646F6D204D6978003A640B
:102FA000697361626C65003A20656E61626C6500F0
:102FB0004772616469656E744D6978005265736526
:102FC0007420562D746F6F6C73004163746976655D
:102FD00020562D746F6F6C0050726573732062758C
:102FE00074746F6E20746F20726573756D650A005E
:102FF000507265737320627574746F6E20746F20E5
:1030000068656174206E6F7A7A6C650A004F464677
:103010000A0046616465204865696768742000425B
:103020006564204C6576656C696E67200046616951
:103030006C656420746F20656E61626C652042650A
:1030400064204C6576656C696E670A00496E76612E
:103050006C6964206D6573682E0A0045787472751A
:1030600064657273005374617274205072696E7477
:103070000043616E6E6F7420656E746572207375A7
:10308000626469723A2000022E2E002534642E25D7
:1030900064206D6D005265766572736520477261BC
:1030A0006469656E74002020456E6420562D746F2F
:1030B0006F6C00537461727420562D746F6F6C00C6
:1030C0002020456E64205A3A005374617274205A6D
:1030D0003A0050726F62696E672025692F25693D3D
:1030E00025730050726F62696E67206D657368208A
:1030F000706F696E74200050726F62696E67205045
:103100006F696E74004F66667365742063617463E3
:10311000686564210070726F62652E6F6666736504
:10312000742E7A203D20004F7665722072616E67A2
:10313000652C206D616E75616C206C6576656C2107
:10314000006D696E5F6F66667365747A203D20005E
:103150006D61785F6F66667365747A203D20004606
:1031600061696C21204D6F766520646F776E205009
:10317000726F62652E00546F206361746368206F04
:10318000666673657400202844525952554E2900D2
:10319000473239204175746F20426564204C657652
:1031A000656C696E67003F20284C2C522C462C42DF
:1031B00029206F7574206F6620626F756E64732EA0
:1031C0000A003F2856296572626F7365206C657628
:1031D000656C20696D706C61757369626C6520281F
:1031E000302D34292E0A00426164205A2076616C09
:1031F00075650A004E6F2062696C696E65617220A8
:10320000677269640A00204D393220580020204D31
:1032100061783A200020204D696E3A2000536F6695
:103220007420656E6473746F70733A2000506C651F
:10323000617365205265736574005052494E544560
:10324000522048414C5445440025533A2025530010
:103250004B494C4C45442E20005072696E74657287
:103260002068616C7465642E206B696C6C28292061
:1032700063616C6C6564210A006563686F3A0045A0
:1032800072726F723A0042696C696E656172204CAD
:103290006576656C696E6720477269643A0A00500A
:1032A00072696E742066726F6D204D65646961008D
:1032B0004D6F76652025736D6D004D6F76652030FE
:1032C0002E316D6D004D6F766520316D6D004D6F47
:1032D00076652031306D6D004D6F766520417869DF
:1032E00073004D6F7665205A004D6F76652059004A
:1032F0004D6F766520580000000A0B02090C0D0E78
:1033000008070304010000000000000000000000A6
:1033100000000000000000000000000000000000AD
:10332000000000121110000000000000000000006A
:1033300000000000000000000000000000205A3AD9
:10334000200020593A200042656420583A2000505D
:1033500072696E74205061757365640050726F629B
:10336000696E67204661696C65640A0050726F621D
:10337000696E67204661696C656400486F6D652001
:1033800025732573257320466972737400496E7323
:103390006572742066696C616D656E7420616E641F
:1033A00020707265737320627574746F6E0A0020EA
:1033B000573A005A38545F4D332052656164792E74
:1033C000005072696E74696E672E2E2E00220A00FC
:1033D000556E6B6E6F776E20636F6D6D616E643AC4
:1033E00020220000002200250028002B002E0031A2
:1033F00000340002010000050108010B010000215A
:1034000000240027002A002D0030003300010100B5
:1034100000040107010A010505050507050808085C
:1034200008020202020A0A08080404040401010155
:10343000010101010103030303030303030407075D
:10344000070C0C0C0C0C0C0C0C02020202060606FB
:1034500006060606060B0B0B0B0B0B0B0B010210E3
:10346000202008081020401020408002010201089E
:10347000040201010204081020408080402010084E
:1034800004020180040201804020100804020108A7
:103490000402010102040810204080010204081007
:1034A00020408020453A0020593A002052004545EE
:1034B00050524F4D20496E697469616C697A656438
:1034C0000A0048617264636F6465642044656661E4
:1034D000756C742053657474696E6773204C6F61EA
:1034E0006465640A003B200020204D363033200004
:1034F00020204D34313220530046696C616D656E79
:10350000742072756E6F75742073656E736F723A86
:103510000020204D3432352046004261636B6C61DF
:10352000736820636F6D70656E736174696F6E3A56
:103530000020550046696C616D656E74206C6F618A
:10354000642F756E6C6F6164206C656E6774687350
:103550003A0020204D3835312058005A2D50726FD6
:103560006265204F66667365740020204D323039E5
:103570002053004175746F2D526574726163743A03
:1035800020533D3020746F2064697361626C652C38
:10359000203120746F20696E7465727072657420BA
:1035A000452D6F6E6C79206D6F7665732061732089
:1035B000726574726163742F7265636F76657200F1
:1035C00020204D3230382053005265636F7665728B
:1035D0003A20533C6C656E6774683E20463C756EBD
:1035E0006974732F6D3E0020570020204D32303714
:1035F000205300526574726163743A20533C6C65C9
:103600006E6774683E20463C756E6974732F6D3E1C
:10361000205A3C6C6966743E0020204D34313320C2
:103620005300506F7765722D4C6F73732052656332
:103630006F766572793A0020204D3330312050008A
:103640005049442073657474696E67733A0020486A
:103650000020204D3134352053004D61746572696E
:10366000616C2068656174757020706172616D6550
:10367000746572733A0020204D36363600456E640C
:1036800073746F702061646A7573746D656E743ADB
:1036900000204A00202047323920572049002020AE
:1036A0004D3432302053004175746F2042656420E0
:1036B0004C6576656C696E673A0020204D32303675
:1036C000205800486F6D65206F66667365743A0018
:1036D00020204D323035204200416476616E6365B2
:1036E000643A20423C6D696E5F7365676D656E7408
:1036F0005F74696D655F75733E20533C6D696E5FE5
:1037000066656564726174653E20543C6D696E5FE8
:1037100074726176656C5F66656564726174653E3E
:1037200020583C6D61785F785F6A65726B3E205906
:103730003C6D61785F795F6A65726B3E205A3C6DC3
:1037400061785F7A5F6A65726B3E20453C6D617897
:103750005F655F6A65726B3E0020540020204D3229
:103760003034205000416363656C65726174696F29
:103770006E2028756E6974732F7332293A20503C7D
:103780007072696E745F616363656C3E20523C7257
:103790006574726163745F616363656C3E20543C61
:1037A00074726176656C5F616363656C3E002020B6
:1037B0004D3230312058004D6178696D756D204172
:1037C0006363656C65726174696F6E2028756E69DC
:1037D00074732F7332293A0020204D323033205831
:1037E000004D6178696D756D206665656472617400
:1037F00065732028756E6974732F73293A005374AA
:103800006570732070657220756E69743A0020448B
:103810000020204D32303020530020446973616213
:103820006C65640A0046696C616D656E7420736531
:103830007474696E67733A0020204D313439204327
:10384000203B20556E69747320696E2043656C734C
:103850006975730A0020286D6D29002020473231D8
:10386000202020203B20556E69747320696E206DE6
:103870006D000000FA430000FA430000A040000081
:10388000C8420000A0420000A0420000C84300005F
:10389000C843B80B0000B80B0000640000001027FC
:1038A0000000544845524D414C2052554E4157411D
:1038B0005900546865726D616C2052756E61776154
:1038C0007900E300B50111241FBECFEFD1E2DEBFC6
:1038D000CDBF00E00CBF13E0A0E0B2E0EAEFF1EBF7
:1038E00002E00BBF02C007900D92AA36B107D9F7CC
:1038F00027E1AAE6B3E001C01D92AF38B207E1F7B5
:103900001CE1C2E6DCE100E006C021970109802F3E
:10391000FE010F945356C136D10780E00807A9F77E
:103920000F94FD3C0D94EB580C9400002F923F92A5
:103930004F925F926F927F928F929F92AF92BF92BF
:10394000CF92DF92EF92FF920F931F93CF93DF936B
:10395000CDB7DEB7A6970FB6F894DEBF0FBECDBFCA
:103960008EA3809195038D3409F4C8C3843511F476
:103970000C94532E873411F00C947E2E8091930377
:10398000909194038B31910509F45EC1CCF484309D
:10399000910509F415C11CF4029788F1ABC38B3073
:1039A000910509F44CC18531910511F40C94802ED8
:1039B0000A9709F09FC381E00F942F190C94802E71
:1039C0008A32910509F4B6C254F48D31910509F497
:1039D00065C10CF453C14E9709F47EC18BC38B357E
:1039E000910509F4F4C18C35910509F4F5C18A35C6
:1039F000910509F07FC31092C00F0C94802E809126
:103A0000A10D813011F00C94802E19821A821B8234
:103A10001C829E012F5F3F4F490165EAC62E6DE073
:103A2000D62E77E8E72E72E0F72EE4E2AE2EE3E042
:103A3000BE2E10E088E5810F0E941FFED4018D93F9
:103A40004D01882311F10E94C4FB2B013C01812F01
:103A50000E9486D3882351F0F70120813181428171
:103A60005381C301B2010F945C5609C0D5012D9159
:103A70003D914D915C91C301B2010F945B56F601EB
:103A800060837183828393830AC0F701808191816F
:103A9000A281B381F60180839183A283B3831F5FE8
:103AA000F4E0CF0ED11C24E0E20EF11C34E0A30EB2
:103AB000B11C133009F0BECF85E40E941FFE8C8339
:103AC000882301F10E94C4FB6B017C0183E00E940A
:103AD00086D3882371F02091930230919402409113
:103AE000950250919602C701B6010F945C566B0186
:103AF0007C01C092B10DD092B20DE092B30DF09264
:103B0000B40D10C08091930290919402A0919502FF
:103B1000B09196028093B10D9093B20DA093B30D26
:103B2000B093B40D8091B41382FF0CC08C818823B4
:103B300049F08981811103C08A81882319F080E0CE
:103B40000F94262640E050E0BA0186E40E949F329E
:103B500020E030E0A9010F94DF57181684F40E948A
:103B6000C4FB20E030E040E752E40F94DF5660935E
:103B70007B0270937C0280937D0290937E02809101
:103B80008D16882311F40C94B82E85E40E94FBFB5B
:103B9000882311F40C94B82E88E50E94FBFB811158
:103BA0000C94B82E89E50E94FBFB81110C94B82E71
:103BB0008AE50E94FBFB81110C94B82E0C94862E92
:103BC00080E50E941FFE882329F00F94300E6B01C0
:103BD0007C0103C0C12CD12C760183E50E941FFE1D
:103BE000882361F00E94C4FB20E030E04AE754E4FF
:103BF0000F94BE4F0F9458576B017C010E9488A010
:103C00008091FE04811105C060E08DE796E00E947E
:103C1000F6760F940724C60ED71EE81EF91E0F94E1
:103C20000724DC01CB018C199D09AE09BF09B7FD42
:103C300002C00C94802E80E00E94BA47F0CF80E052
:103C40000F942F190C94802E0F94872A81110C94B5
:103C5000802E8CE0E9EAF2E0DE01119601900D92EF
:103C60008A95E1F760E070E080E50E949ADABE0193
:103C70006F5F7F4F0E9451720C94802E80918F0F46
:103C80008770873011F00C94E32E60E08FE40E947F
:103C90002CFE81110C94802E0C94E32E0F9407249B
:103CA00060934F177093501780935117909352174A
:103CB0000F94872A81110C94802E8091C50F882340
:103CC00011F40C94552F60E08FE40E942CFE8111BA
:103CD0000C94802E0C94552F2091830F3091840FDB
:103CE0004091850F5091860F6091870270918802F4
:103CF0008091890290918A020F945C56AB01BC01BD
:103D000088E50E949F3269837A838B839C8320910C
:103D1000870F3091880F4091890F50918A0F6091E1
:103D20008B0270918C0280918D0290918E020F9483
:103D30005C56AB01BC0189E50E949F326D837E8396
:103D40008F839887BE016B5F7F4FCE0101960F94E2
:103D5000AE0E882311F40C94802E80E00F94381C52
:103D60000E9445A861E085E40E942CFE01E021E06C
:103D7000482FBE016B5F7F4FCE0101960F943F2B02
:103D80006B017C019B01AC010F945D58811119C03E
:103D900049815A816B817C8187E493E30F9495205C
:103DA0004D815E816F81788582E493E30F94952045
:103DB000B701A6018DE393E30F9495208AE00E945A
:103DC0008E460E942CA80E949B6C0C94802E8FE043
:103DD0008093C00F0C94802E80919203882349F128
:103DE000893009F0A3C042E0A42E43E0B42E57E886
:103DF000E52E52E0F52ED12C00E010E0D5018D919A
:103E00005D010E941FFE882369F00E94C4FBF70138
:103E10006083718382839383133011F401E002C0C5
:103E2000DD24D3941F5FF4E0EF0EF11C143031F762
:103E300072C092E0292E93E0392E26EDE22E2FE07B
:103E4000F22E27E832E03DA32CA334E2C32E33E068
:103E5000D32E00E010E0D1018D911D010E941FFEC4
:103E6000882309F448C00E94C4FB2B013C01133095
:103E700049F0F60120813181428153810F945B56D4
:103E80002B013C01ACA1BDA12D913D914D915C91C7
:103E9000C301B2010F945B564B015C012DEB37E37C
:103EA00046E855EB0F94DF5787FD0AC02DEB37E34B
:103EB00046E855E3C501B4010F94584F1816DCF4D9
:103EC000133051F440929302509294026092950202
:103ED0007092960201E00FC0A5019401F701608184
:103EE0007181828193810F945C56D7016D937D938C
:103EF0008D939C9313971F5FB4E0EB0EF11CECA124
:103F0000FDA13496FDA3ECA3F4E0CF0ED11C143038
:103F100009F0A1CF05C0DD2019F00E94996C06C000
:103F2000002321F083E992E00E941DA30E949B6C74
:103F30000C94802E8091A10D813011F00C94802E74
:103F400089E40E941FFEE82E882321F00E94C0FB16
:103F5000082F01C000E08AE40E941FFEF82E88238B
:103F600021F00E94C0FB182F01C010E0EE2011F0DC
:103F7000063020F4FF2041F0163030F086E896E05D
:103F80000F94E51F0C94802E80E1E7E8F2E0A5EAAB
:103F9000BDE001900D928A95E1F7EE2019F1602FB6
:103FA000000F770B880B990B0F945F4F20917D16B4
:103FB00030917E1640917F16509180160F94BE4F1F
:103FC00020919704309198044091990450919A045B
:103FD0000F945C566093A50D7093A60D8093A70D6A
:103FE0009093A80DFF2019F1612F110F770B880B0B
:103FF000990B0F945F4F209181163091821640915A
:104000008316509184160F94BE4F20919B043091DB
:104010009C0440919D0450919E040F945C566093C3
:10402000A90D7093AA0D8093AB0D9093AC0D60E039
:1040300080E50E942CFE8823C1F1EE20D1F0209172
:10404000830F3091840F4091850F5091860F6091BE
:10405000A50D7091A60D8091A70D9091A80D0F94BC
:104060005B566093A50D7093A60D8093A70D90935A
:10407000A80DFF20D1F02091870F3091880F40913B
:10408000890F50918A0F6091A90D7091AA0D8091AE
:10409000AB0D9091AC0D0F945B566093A90D70938E
:1040A000AA0D8093AB0D9093AC0D40E050E0BA01A7
:1040B00086E40E949F326B017C0120E030E0A90180
:1040C0000F94DF5718164CF420E030E040E752E43C
:1040D000C701B6010F94DF5603C060E070E0CB016A
:1040E00069837A838B839C83CE0101960E9464A8A6
:1040F0000C94802E0F946D270C94802E8091930346
:1041000090919403833A910511F40C94CF280CF00C
:104110008AC18335910509F470C60CF082C08A31DA
:10412000910509F4B9C3BCF58431910509F40CC3B8
:104130007CF48131910509F4F3C22CF4029708F460
:10414000B7C20C94502E429709F45EC60C94502EC0
:104150008731910509F42DC394F48531910509F453
:1041600024C3469711F00C94502E0E94DFEE8091EC
:10417000B413877F80628093B4130C94802E8831AF
:10418000910509F42BC3499711F00C94502E0E940D
:10419000D7D90C94802E8032910509F4F5C3F4F43C
:1041A0008D31910509F4D9C384F48B31910509F45B
:1041B00081C34C9711F00C94502E809190039091F4
:1041C00091030E9444F00C94802E8E31910509F4E5
:1041D000CBC34F9709F401C40C94502E8D34910534
:1041E00009F4AAC46CF48B34910509F4A1C48C348D
:1041F000910511F00C94502E0E944D6E0C94802E5F
:104200008135910509F4E3C58235910511F00C94CF
:10421000502E8091C00F8F7D80618093C00F0C94D1
:10422000802E8037910509F482C5E4F58A36910520
:1042300009F4DCC4CCF48C35910509F43EC654F481
:104240008435910509F4E0C58535910509F412C658
:104250000C94502E8836910509F472C48936910564
:1042600009F4B1C40C94502E8D36910509F489C41B
:104270007CF48B36910509F4F7C48C36910511F066
:104280000C94502E1092900F109279020C94802E64
:104290008E36910509F4F3C48F36910509F402C5F1
:1042A0000C94502E8837910509F4F6C60CF09FC087
:1042B0008537910509F4A6C60CF08CC082379105AC
:1042C00009F499C68337910511F00C94502E87EBB1
:1042D00098E00F94E51F60E087EA98E00E94513D66
:1042E00060E082E998E00E94513D61E081E99DE251
:1042F0000E94513D61E087E898E00E94513D61E0F5
:1043000087E798E00E94513D60E08EE698E00E94C9
:10431000513D61E084E698E00E94513D61E08AE50C
:1043200098E00E94513D61E083E598E00E94513D94
:1043300061E08BE498E00E94513D61E08DE398E0FC
:104340000E94513D60E08FE298E00E94513D60E0A4
:1043500080E298E00E94513D60E082E198E00E9496
:10436000513D60E08CEF97E00E94513D60E08BEEA4
:1043700097E00E94513D60E08CED97E00E94513D36
:1043800061E085ED97E00E94513D60E080EC97E0B0
:104390000E94513D60E082EB97E00E94513D61E058
:1043A0008FE997E00E94513D60E082E997E00E942A
:1043B000513D60E08DE897E00E94513D61E080E86A
:1043C00097E00E94513D60E08CE697E00E94513DED
:1043D0000C94802E8637910509F424C68737910501
:1043E00011F00C94502E0E94786D0C94802E8C3815
:1043F000910509F4A7C46CF48937910509F454C6F2
:104400008D37910511F00C94502E0E94D7D90C9441
:10441000802E8139910509F44EC68B39910509F436
:10442000B0C40C94502E823921E0920711F40C9400
:10443000C02B0CF08AC08F3C910509F4E8C7DCF56D
:10444000883C910509F4F4C6C4F4863A910509F450
:10445000E9C634F4843A910509F4D5C60C94502E7B
:10446000873A910509F4E1C68E3B910511F00C9451
:10447000502E0E94D7360C94802E8C3C910509F466
:104480007CC754F4893C910509F417C78B3C91050E
:1044900009F454C70C94502E8D3C910509F49EC725
:1044A0008E3C910511F00C94502E42EEE42E4FE01C
:1044B000F42E18E596C78232A1E09A0711F40C9405
:1044C000222BECF4833D910511F40C94A22A5CF4A8
:1044D000803D910509F4DFC7813D910511F40C94ED
:1044E000952A0C94502E8C3D910511F40C94A52A1C
:1044F0008D3D910511F40C94CC2A0C94502E8F32E2
:10450000E1E09E0711F40C94BA2B6CF48C3221E09C
:10451000920711F40C94252B8D32914011F40C94D8
:104520003A2B0C94502E8039A1E09A0711F40C9488
:10453000BD2B8139914011F00C94502E81E00E94E6
:1045400073580E949B6C0C94802E883FE1E09E077C
:1045500011F40C94512D0CF052C0893A21E09207CD
:1045600011F40C94462C04F58D39A1E09A0711F44E
:104570000C94132E64F48A39E1E09E0709F4DFC33A
:104580008C39914011F40C94C52B0C94502E843A24
:1045900021E0920711F40C94CF2B853A914011F44D
:1045A0000C94D22B0C94502E853FA1E09A0711F465
:1045B0000C944B2D7CF48C3AE1E09E0711F40C94A2
:1045C000EC2C843F914011F00C94502E0E940D4D24
:1045D0000C94802E863F21E0920711F40C944E2D0E
:1045E000873F914011F00C94502E61E083E50E94CA
:1045F0002CFE91E089270F9430340C94802E8E3B52
:10460000A2E09A0711F40C94FF2D2CF58B35E2E013
:104610009E0711F40C946F2D7CF48C3022E09207ED
:1046200011F40C94622D8835924011F00C94502EA8
:104630000E94C0D80C94802E8A39A2E09A0711F407
:104640000C94E62D8D3B924011F00C94502E0E945C
:104650006ED70C94802E873EE3E09E0711F40C94F5
:10466000052ECCF4833523E0920711F40C94022E2E
:10467000803A934011F00C94502E20919003309189
:1046800091039091B41392609093B413C9010E9466
:1046900044F00C94802E883EA3E09A0711F40C9409
:1046A0002D2E893E934011F40C94302E0C94502EF4
:1046B00080E50E941FFE882329F00F94300E6B01C5
:1046C0007C0103C0C12CD12C760183E50E941FFE22
:1046D000882361F00E94C4FB20E030E04AE754E404
:1046E0000F94BE4F0F9458576B017C010E9488A015
:1046F0008091900390919103009721F061E00E94D6
:104700009E7705C060E08FE996E00E94F67640E073
:10471000C701B6010E94874C0F94BE270C94802ECF
:104720008091960384FF02C00C94582F80919803C7
:1047300087FF02C00C94582F80919903837011F069
:104740000C94582F0C94762F8091B41383FF25C0BE
:104750008AEC96E00F94E51F8091B41383FF17C095
:1047600083ED93E10E94FC998BE1E3EDF3E1DE013F
:10477000119601900D928A95E1F760E070E0CE010C
:1047800001960E9457F3CE0101960E9459FE8BEBD1
:1047900096E00F94E51F0C94802E0F94CA208BEDA9
:1047A00096E00F94E51F0C94802E0E94F2F20C9478
:1047B000802EE0919003F09191038081882329F06D
:1047C000803209F410823196F8CF60E08091900336
:1047D000909191030E948CF00C94802E83E50E94AE
:1047E0001FFE882321F00E948CFB0E94CF3884E5B5
:1047F0000E941FFE8823A9F00E948CFB6B017C01A4
:104800000E94F66DC0922C05D0922D05E0922E05E7
:10481000F0922F05CD28CE28CF2819F081E0809383
:10482000B90F80917A0E8823F9F080E090E0A0E241
:10483000B1E488A399A3AAA3BBA31C8E1D8E1E8ED0
:104840001F8E19821A821B821C8200E010E020E079
:10485000AE01405E5F4FBE01645E7F4FCE010196A8
:104860000E94B0FE0C94802E0E94D345882381F0D4
:104870000E94F0EE0E94116E8BE590E10E9495EE91
:1048800010929A0310929B0310929C0310929D0326
:104890000F94BE270C94802E8091B41383FD02C028
:1048A0000C94802E83E50E941FFE81110C94862FAC
:1048B0000C94802E83E40E94FBFB882319F18FEE79
:1048C00096E00F94E51F80911A15882391F0BE01A0
:1048D0006F5F7F4F87E195E10E94C8998E010F5F5E
:1048E0001F4FF80181918F01882339F00E948E4675
:1048F000F8CF85EE96E00F94E51F8AE00E948E4681
:104900000C94802E8091B41382FF21C08EEF96E02C
:104910000F94E51F6091B0137091B1138091B213A1
:104920009091B3134AE00E9495468FE20E948E4612
:104930006091AC137091AD138091AE139091AF1351
:104940004AE00E9495460E9493470C94802E80E195
:1049500097E00F94E51F0C94802E8091B4138E7F06
:104960008093B4130C94802E8091B41383FD02C005
:104970000C94802E0F945627809190039091910370
:104980000E947CF20C94802E8091B41382FD0E94D0
:1049900088A08091B41383FD02C00C94802E60E047
:1049A00080E50E942CFE182F682F80919003909133
:1049B00091030E948CF083E50E941FFE882321F062
:1049C0000E948CFB0E94CF380E94F0EE11110C94D3
:1049D000802E0E94116E0C94802E0E94C26D7B016D
:1049E0008C0120E831E541E050E00F94AE55C9015B
:1049F0006DE671E00F942B564B015C01C801B701C5
:104A000020E13EE040E050E00F94AE55CA01B9010C
:104A100028E130E040E050E00F94AE55762E672E4E
:104A2000C62ED72E8CE3282E312C412C512CC801B8
:104A3000B701A20191010F94AE55F62EE72ECA01DF
:104A4000B901A20191010F94AE55CB018E010F5F08
:104A50001F4F8114910499F0EF92FF927F936F930F
:104A60006F927F92BF92AF929F928F9281E297E076
:104A70009F938F931F930F930F94F04E13C0A11425
:104A8000B104B1F0EF92FF927F936F936F927F9298
:104A9000BF92AF9285E297E09F938F931F930F93FE
:104AA0000F94F04E0FB6F894DEBF0FBECDBF30C0EE
:104AB000CD2879F0EF92FF927F936F936F927F9260
:104AC00089E297E09F938F931F930F930F94F04E7B
:104AD000E9CF892B69F0EF92FF927F936F938DE27C
:104AE00097E09F938F931F930F930F94F04EDACF1D
:104AF000EF92FF9281E397E09F938F931F930F9321
:104B00000F94F04E0F900F900F900F900F900F900A
:104B100060E0C8010E949E770F94CA20B80185E327
:104B200097E00F94B3208AE00E948E460C94802E6A
:104B30000E94116E0C94802E0E94626E0C94802E46
:104B400080916B0B83FF02C00C94802E89E40E943D
:104B50001FFE882311F40C948B2F0E949CFB90E085
:104B60001816190614F481E090E026E0289FF00161
:104B7000299FF00D1124E155F94E808191810C940B
:104B8000962F80916B0B83FF02C00C94802E89E4DA
:104B90000E941FFE882311F40C949D2F0E949CFB01
:104BA00090E01816190614F481E090E026E0289FA2
:104BB000F001299FF00D1124E155F94E808191817A
:104BC00010E00C94AE2F0E945DD3182F87FF02C017
:104BD0000C944A3189ED9BE00F94E51F812F0E94D0
:104BE00059798AE00E948E460C944A3160E080E553
:104BF0000F94701081110C94802E81E40E94FBFBB5
:104C0000882329F060910106062F10E002C00FEF03
:104C100010E089E40E941FFE882399F00E949CFB0B
:104C200090E01816190614F481E090E026E0289F21
:104C3000F001299FF00D1124E155F94E04811581F1
:104C400008C083E50E941FFE882319F00E948CFB98
:104C50008B01B8010F3F110519F010F06FEF70E0F4
:104C6000609301060C94802E60E080E50F94701034
:104C700081110C94802E109201060C94802E8EE4EB
:104C80000E941FFE882311F40C94802E0E948CFB3E
:104C9000609322047093230480932404909325044A
:104CA0000C94802E83E50E94FBFB882331F060E0AA
:104CB00083E50F94701080936B0B0F94CA208BE4E4
:104CC00097E00F94E51F80916B0B882369F1BCE599
:104CD000EB2EBBE0FB2E00E010E020E080916B0BA0
:104CE00090E0A0E0B0E0002E04C0B695A79597959F
:104CF00087950A94D2F780FF0EC0DD24D394D20E9C
:104D0000222319F08CE20E948E46F701859194913E
:104D10000F94E51F2D2D0F5F1F4FF2E0EF0EF11CDA
:104D200005301105D9F6E9CD87E497E0E4CD41E0FF
:104D300060E070E082E597E00F94CE20E1C70E942A
:104D4000AB45DEC780916B0B83FDDAC789E40E9417
:104D50001FFE882311F40C94EF2F0E949CFB90E01F
:104D60001816190614F481E090E026E0289FF0015F
:104D7000299FF00D1124E155F94E628173810C9445
:104D8000F92F83E50E941FFE882309F4B9C70E940A
:104D90009CFB182F90E0CD970CF01CE310936F0351
:104DA0000F9407246B017C01212F30E0A8EEB3E0C3
:104DB0000F940256C60ED71EE81EF91EC0926B0352
:104DC000D0926C03E0926D03F0926E0399C70E943B
:104DD0001C7A0E94626E0E9499A00E94F74568EEBC
:104DE00073E080E090E00F94C11F0E94FA4560E0FC
:104DF00080E697E00E94F67683C78091C00F8F7E91
:104E000080628093C00F7CC783E50E941FFE8823C9
:104E1000E9F00F94072460934F1770935017809315
:104E20005117909352170E94C4FB20E030E04AE7EC
:104E300054E40F94BE4F0F94585760930002709340
:104E4000010280930202909303025AC78091960355
:104E500084FF02C00C940C308091980387FF02C03D
:104E60000C940C3080919903837011F00C940C30E9
:104E70000C943E3083E50E94FBFB882309F440C775
:104E80000F94072460934F17709350178093511716
:104E9000909352170E94C4FB20E030E04AE754E4AC
:104EA0000F94BE4F0F945857609370037093710323
:104EB000809372039093730323C70E945DD387FD91
:104EC0001FC79091960394FD04C09091980397FF9B
:104ED0000AC0F2E0CF2EF3E0DF2EACE6EA2EABE024
:104EE000FA2E10E009C090919903937091F7682F02
:104EF00081E00F94F50D04C7D6018D916D010E94DC
:104F00001FFE882309F46DC0133009F063C00E94AE
:104F1000C4FB4B015C0120E030E040EA51E40F9417
:104F2000584F87FF4EC0A501940160918C0B709182
:104F30008D0B80918E0B90918F0B0F94DF562B0170
:104F40003C019B01AC016091E5057091E605809103
:104F5000E7059091E8050F94BE4F6093E5057093C7
:104F6000E6058093E7059093E805A301920160911F
:104F70009C0B70919D0B80919E0B90919F0B0F94B9
:104F8000BE4F60939C0B70939D0B80939E0B9093F0
:104F90009F0B6091F5057091F6058091F705909152
:104FA000F8050F945D4FA30192010F94BE4F0F942B
:104FB00058576093F5057093F6058093F705909325
:104FC000F80580928C0B90928D0BA0928E0BB09274
:104FD0008F0B07C00E94C4FBF701648B758B868B17
:104FE000978B1F5FF4E0EF0EF11C143009F084CFB3
:104FF0000E9464A085C60F94B12E8CE393E10E94B9
:10500000FC807EC68091900390919103009709F4F3
:105010003FCCDC012C91222309F43ACC60E00E94C1
:105020009E776EC6009190031091910394E0F12C4D
:1050300040E0915021F1F8018081282F2B7F21340D
:1050400021F421812133D9F407C08035C1F4818155
:1050500080538A3048F013C0813421F0853421F424
:1050600041E002C0FF24F39498012E5F3F4F890175
:105070002F5F3F4FF80180818032C9F3DACF4111B1
:105080000F94CA20FF2021F08EE899E00F94E51FCD
:10509000C8010E94994734C681E08093CD0B80936C
:1050A000CC0B0E94B36D2CC61092CD0B1092CC0B82
:1050B0000E94B36D25C660E070E083E50F94611037
:1050C000823038F00F94C62082E999E00F94E51FF2
:1050D00017C68C01112788E40E941FFE8823E1F087
:1050E0000E94C0FB8A3A910544F00E94C0FB8530C3
:1050F000914034F40E94C0FB05C08AEA90E002C0EF
:1051000084E091E026E0209FF001219FF00D112422
:10511000E155F94E9183808382E40E941FFE88232B
:10512000D9F00E94C0FB97FD08C00E94C0FB8937E0
:10513000910534F40E94C0FB05C080E090E002C0FD
:1051400088E790E026E0209FF001219FF00D1124D8
:10515000E155F94E9383828386E40E941FFE8823E3
:1051600009F4CEC50E94C0FB97FD09C00E94C0FB98
:105170008F3F910509F034F40E94C0FB05C080E028
:1051800090E002C08FEF90E026E0209FF001219F89
:10519000F00D1124E155F94E95838483B1C560E08B
:1051A00070E083E50F9461107C01039724F540E0E3
:1051B00050E0BA0180E50E949F324B015C018701FB
:1051C000112720E030E0A9010F94DF5718161CF0DA
:1051D000812C912C5401000F111F000F111FF80199
:1051E000E053F44F80829182A282B38232E0E316D0
:1051F000F104A9F085C583E0E816F10409F480C53F
:105200000F9422057DC56FEF7FEF83E50F9461104A
:105210008031910510F0809148060F94CF180F94BB
:1052200043036EC50E94A0DB6BC50E9405DB68C509
:105230000E945DD3182F87FD63C50091D50F84E4CC
:105240000E941FFE882309F41CC70E94C4FB6B0147
:105250007C0120E030E0A9010F94584F882339F1F8
:1052600094E01902F0011124EF52F04FC082D18274
:10527000E282F38220E030E0A9016091D10F7091C9
:10528000D20F8091D30F9091D40F0F94584F81116A
:105290000CC080E090E0A0EEBFE38093D10F90932C
:1052A000D20FA093D30FB093D40F01E0EAC680E0F1
:1052B0008093D50F0E94B69E23C50E945DD387FDC3
:1052C0001FC562E0C62E63E0D62E7CE6E72E7BE0AB
:1052D000F72E10E0D6018D916D010E94FBFB882313
:1052E00031F10E94C4FB6C8F7D8F8E8F9F8F80E188
:1052F000E5EBF2E0DE01119601900D928A95E1F75F
:105300009E012F5F3F4F4FEA5DE2612FCE014C9629
:105310000E94549F6C8D7D8D8E8D9F8D0F9458575C
:10532000F70160837183828393830E941DA01F5FB6
:10533000F4E0EF0EF11C143069F6E2C40E945DD374
:1053400087FDDEC452E0E52E53E0F52E0CE61BE0AF
:10535000D7018D917D010E94FBFB882339F00E94CB
:10536000C4FBF80164A375A386A397A30C5F1F4F2A
:10537000FBE00C371F0761F7C3C48091970387FDDB
:1053800085C6809198038E7009F080C64091A00B6D
:105390005091A10B6091A20B7091A30B84EB99E04B
:1053A0000F9495204091A40B5091A50B6091A60BF2
:1053B0007091A70B8BEA94E30F9495204091A80B72
:1053C0005091A90B6091AA0B7091AB0B89E597E303
:1053D0000F9495208AE00E948E4692C40F94400E4E
:1053E0008FC4812F0E94FBFB882341F00E94C4FBE5
:1053F000D7016D937D938D939C9313971F5FB4E0BA
:10540000EB0EF11C1B3569F70E949B6C79C483E598
:105410000E94FBFB882351F00E94C4FB60938E1610
:1054200070938F16809390169093911686E40E9445
:10543000FBFB882381F00E94C4FB20E030E040E7C2
:1054400052E40F94DF5660939216709393168093F4
:105450009416909395168AE50E94FBFB882351F0E1
:105460000E94C4FB609396167093971680939816CB
:105470009093991687E50E94FBFB882309F440C4AA
:105480000E94C4FB6093A2167093A3168093A41687
:105490009093A51635C483E50E94FBFB882351F049
:1054A0000E94C4FB60939A1670939B1680939C167F
:1054B00090939D1686E40E94FBFB882381F00E9456
:1054C000C4FB20E030E040E752E40F94DF566093E5
:1054D0009E1670939F168093A0169093A11682E556
:1054E0000E94FBFB882381F00E94C4FB20E030E097
:1054F00040E752E40F94DF566093AA167093AB1600
:105500008093AC169093AD1687E50E94FBFB882331
:1055100009F4F6C30E94C4FB6093A6167093A71605
:105520008093A8169093A916EBC383E50E94FBFB1A
:10553000882309F4E5C30E94B0FB80938D160F9475
:105540001C0DDEC30F941F0DDBC383E50E941FFEFD
:10555000882331F00E94C0FB90935C0280935B0231
:105560008091960390919703A0919803B09199032D
:10557000892B8A2B8B2B09F0C3C360915B0270913E
:105580005C0284EC99E00F94A62085E20E948E468E
:105590008AE00E948E46B4C30E945DD3F82E87FD38
:1055A000AFC383E50E941FFE0F2D0F2C000C110BC3
:1055B000882369F10E94C0FBF801EE0FFF1FE35A38
:1055C000FD4F91838083000F111F000F111FF80101
:1055D000E45BFD4F7F01BC01990F880B990B0F9481
:1055E0005F4F2AE037ED43E25CE30F94BE4FF801D2
:1055F000EB54F24F20813181428153810F94BE4F91
:10560000D7016D937D938D939C93139779C30F94DA
:10561000CA2085E40E948E4680E38F0D0E948E464C
:10562000000F111FF801E35AFD4F6081718188EC72
:1056300099E00F94A62085E20E948E468AE00E949F
:105640008E465EC30E94AB3C5BC364E071E083E5C1
:105650000E949ADA8C0168EE73E080E50E949ADA83
:105660008938B3E19B0710F088E893E1B8010E9404
:10567000C97646C360E085E40F947010811173C051
:1056800080E50E94FBFB882351F00E94C4FB6093DD
:10569000791770937A1780937B1790937C1789E41E
:1056A0000E94FBFB882381F00E94C4FB2CEA35ECAE
:1056B00047E25EE30F94BE4F60937D1770937E17B1
:1056C00080937F179093801784E40E94FBFB8823CC
:1056D00081F00E94C4FB2CEA35EC47E25EE30F94B4
:1056E000DF5660938117709382178093831790938E
:1056F00084170F94CA204091791750917A176091BE
:105700007B1770917C1788ED99E00F9495202CEA17
:1057100035EC47E25EE360917D1770917E178091D2
:105720007F17909180170F94DF56AB01BC0184ED79
:1057300099E00F9495202CEA35EC47E25EE3609106
:1057400081177091821780918317909184170F941D
:10575000BE4FAB01BC0180ED99E00F9495208AE02B
:105760000E948E46CDC20F94C6208CED99E00F9416
:10577000E51FC6C20E94B632C3C20E9488A0C0C242
:105780000F94AB0E0E949B6CBBC28091960383FD6D
:10579000C3C480919803867009F0BEC4E2C40E941D
:1057A00049FCAEC26FEF7FEF89E40F946110082FC0
:1057B0006FEF7FEF8AE40F946110182F8AE50E9443
:1057C0001FFE811108C081E50E941FFED82E88238C
:1057D00009F4E4C401C0D12CC02E81E0800F8730D1
:1057E00008F04DC0912E81E0810F873008F047C04E
:1057F0000E94C4FB2B013C01F02E07FDF12C07FF9A
:1058000002C005E0C02E812E17FD812C17FF02C0BB
:1058100015E0912EB6E03B2ECF1408F471C2E82CAF
:105820003F9C500111249E1440F10E2D10E0DD200C
:1058300071F0F501E00FF11FEE0FFF1FEE0FFF1FDC
:10584000E154F94E208131814281538103C020E02F
:1058500030E0A9010A0D1B1D000F111F000F111FC1
:105860000154194EC301B2010F945C56F8016083D4
:10587000718382839383E394D6CFF394CDCF0F9437
:10588000C62086E896E00F94E51F3AC26BEBE62E41
:1058900065E0F62E670118E501E0812F0E94FBFB11
:1058A000882391F00E9488A08091740390917503E1
:1058B000892B09F47AC40E94C4FBD6016D937D93B1
:1058C0008D939C93139700E01F5FB4E0CB0ED11C27
:1058D0001B3519F786E40E94FBFB882371F10E94B7
:1058E00088A00E94C4FB6B017C0120E030E040E80E
:1058F0005FE30F94DF5718166CF020E030E0A90149
:10590000C701B6010F94584F87FF0AC0C12CD12C94
:10591000760106C0C12CD12C50E8E52E5FE3F52EB0
:1059200020E030E04FE753E4C701B6010F94BE4FCB
:105930000F9458576093C705E3C1002309F4E0C1F1
:105940008BEA9AE00F94E51F8091C705811104C08E
:105950008FE090E20F94E51F82EA9AE00F94E51F32
:105960008091C705E4E68E9FC001112481589F4FA6
:105970006FEF70E00F943F5670E080E090E00F947E
:105980005D4F20E030E048EC52E40F94DF56AB016D
:10599000BC018EE79AE00F94952081E69AE00F947F
:1059A000E51F8FE39AE00F94E51F18E580E20E945F
:1059B0008E46812F0E948E46D7016D917D918D91EB
:1059C0009D917D0142E00E941E478AE00E948E4622
:1059D0001F5F1B3559F794C10F94872A811190C11D
:1059E0003DE8E32E34E1F32EE7E8F2E0FDA3ECA37B
:1059F0008E010F5F1F4F49EBC42E4DE1D42E1801CD
:105A0000F7016591759185919491ACA1BDA18D909F
:105A10009D90AD90BD90BDA3ACA3A50194010F9442
:105A20005B562B013C01F101608371838283938378
:105A300020E030E040EA51EC0F94DF5787FD0AC0C8
:105A400020E030E040EA51E4C301B2010F94584F26
:105A500018162CF4F601849118160CF4AAC3D1017F
:105A60008D909D90AD90BD901D0120E030E040EA0A
:105A700051ECC501B4010F94DF5787FDA5C320E0A9
:105A800030E040EA51E4C501B4010F94584F1816B4
:105A90000CF0AEC399C30F941A3432C10F94713213
:105AA0002FC181E0809378160E94045210927816DC
:105AB000882309F425C10F94CA208CEF9AE00F9433
:105AC000E51F1EC18091B41382FF04C080648093DF
:105AD000B41316C183FF14C10F94562711C10E943D
